:020000041000EA
:1000000000B5324B212058609868022188439860DF
:10001000D860186158612E4B002199600221596106
:100020000121F02299502B49196001219960352056
:1000300000F044F80222904214D00621196600F024
:1000400034F8196E01211966002018661A6600F04E
:100050002CF8196E196E196E052000F02FF8012189
:100060000842F9D1002199601B49196000215960AB
:100070001A491B48016001219960EB211966A021F2
:10008000196600F012F800219960164914480160C1
:100090000121996001BC002800D000471248134993
:1000A000086003C880F30888084703B5996A0420EC
:1000B0000142FBD001200142F8D103BD02B5186610
:1000C0001866FFF7F2FF186E186E02BD00000240BE
:1000D000000000180000070000035F00212200005C
:1000E000F4000018222000A00001001008ED00E03C
:1000F00000000000000000000000000074B24E7A12
:1001000000200420F7010010C3010010C5010010F9
:10011000C1010010C1010010C1010010C101001097
:10012000C1010010C1010010C1010010C701001081
:10013000C1010010C1010010C9010010CB01001065
:10014000CD010010CD010010CD010010CD01001037
:10015000CD010010CD010010CD010010CD01001027
:10016000CD010010CD010010CD010010CD01001017
:10017000CD010010CD010010CD010010CD01001007
:10018000CD010010CD010010CD010010CD010010F7
:10019000CD010010CD010010CD010010CD010010E7
:1001A000CD010010CD010010CD010010CD010010D7
:1001B000CD010010CD010010CD010010CD010010C7
:1001C00000BE00BE00BE00BE00BE00BEEFF3058054
:1001D000103800BEF2EB8871C44B0010E44B0010E5
:1001E0003402001090A31AE700201F49086006C8D7
:1001F00081F3088810471D48006800282FD10DA4FE
:100200000ECC002902D000F012F8F9E71849194A7B
:10021000002000E001C19142FCD1174988471749ED
:1002200088471749884700BEFDE701C901C29A42C5
:10023000FBD37047E44B0010C0000020500F00209B
:10024000745A00100000042000000420745A0010AA
:10025000001004200010042000000000704709482E
:1002600001F044FE0047000008ED00E0000000D06F
:10027000500F0020D81C0020651D001055030010F1
:10028000591E00105756000006005250ABB3605381
:100290008449001006005250861C03029449001045
:1002A000060052505422A29DA04900100500525051
:1002B000DE65F468745A0010F8B5C0460448054B72
:1002C00010B5834203D0044B002B00D0984710BDDB
:1002D000500F0020500F0020000000000648074982
:1002E000091A8B10C90FC91810B5491003D0044B57
:1002F000002B00D0984710BD500F0020500F002059
:100300000000000010B5074C2378002B09D1FFF73F
:10031000D5FF054B002B02D0044800E000BF0123AD
:10032000237010BD5810002000000000F04800109D
:10033000054B10B5002B03D00449054800E000BF71
:10034000FFF7CCFF10BDC046000000005C1000208D
:10035000F0480010F8B502F087F80421002000F002
:1003600055F8214B214A04251A61802252005A6017
:100370001A68012393431E4A1E4C136004F006FAC8
:100380001F211C2000F042F8002200211C2000F058
:1003900055F800211C2000F069F8E0222368D20102
:1003A0001340154A154E13608022356052002368B1
:1003B0001342FCD06368124A1B0417681A0CDB0A4C
:1003C000981A800080180F49800101F0BDFDFA23C2
:1003D0009B009C46604447400B4B3F043F0C64200D
:1003E0001F6000F0CDFEDFE700000540282300007D
:1003F0000010054000C0044000D0044000E004406C
:100400000C000540FFFF00000C100540094A830066
:1004100094464022634410B51C68C0006240C0246A
:1004200014408022520113431C60034B9C466044DD
:10043000416010BD04C00140004001400A4B8000F3
:100440009C4604236044002901D00C230821002A83
:1004500000D10B00026853400C221A4080235B013C
:10046000184302607047C04604C00140084B80003A
:100470009C466044002905D080239B0118434023FB
:1004800003607047C0239B01184340230360F8E7D3
:1004900004C00140024B18688007C00F7047C04677
:1004A00000C00640F8B5EFF3108772B60E4E336801
:1004B000002BFCD0BFF35F8FCB08C4180725A446E0
:1004C000C45C01230D40AB4018002040234208D1FA
:1004D000624623431370BFF35F8F306087F3108849
:1004E000F8BD100001F0BCFC2C0100D0F8B5CE46E0
:1004F00047468C4680B5EFF3108872B6214D2C68C4
:10050000002CFCD0BFF35F8F9A422CD8D40807216F
:10051000055D0619012411408C402C421FD0072193
:100520008946063909E0D408055D06194C460F00D6
:100530001440A7403C002F4211D001329342F2D226
:1005400001204042BFF35F8F00220E4B1A6088F3F8
:10055000108800280FDB0CBC90469946F8BD2C4350
:1005600010003470EEE7BFF35F8F00232B6088F339
:100570001088012040426346002BECD0089801F01F
:100580006FFCC0462C0100D00021044B044ABFF38D
:100590005F8F02C39342FAD17047C046000100D07A
:1005A000800100D0044A1078431CDBB2172B00D91D
:1005B000102313707047C046580E002000B5054B3D
:1005C00083B00100009318221F230348FFF78EFF1A
:1005D00003B000BDF0480010101500200123834037
:1005E000002904D0034A1360034A13607047034A8A
:1005F0001360FBE780E200E000E100E080E100E062
:1006000001238340014A13607047C04600E200E0C6
:10061000084B10309B688000C358002B07D0064A57
:1006200000209B1A2F229A424041C0B270470020FE
:10063000FCE7C04600ED00E05C0E0020024B1030ED
:100640009B688000C058704700ED00E070B50D0059
:10065000EFF3108672B60F4A1368002BFCD0BFF37D
:100660005F8F0D4B10309B6884001B590B4A9342DF
:1006700003D09D4201D001F00BFC074B9B681D513C
:10068000BFF35F8FBFF35F8F0022024B1A6086F3C8
:10069000108870BD240100D000ED00E0CD010010F5
:1006A000F0B557464E464546DE46E0B5894683B02E
:1006B00005001700EFF3108A72B65E4A1368002B2C
:1006C000FCD0BFF35F8F00205B4B18569B46002881
:1006D00000DA6CE05A464400584E2418A40033193E
:1006E00098469B7910351370554BAA009B68019270
:1006F0009B589C469B1B2F2B28D801226146914377
:10070000CB79BB4208D86AE053009B189B00F318D2
:10071000DD79BD4251D9190006228A56002AF3DA42
:100720000B1D9B46474E43465C46043B1B1B1B056B
:10073000454C5B0D23438B80887141468A714A4644
:10074000424B8E800B60CF718A601BE0404B9C4512
:1007500042D142463F4B023413803F4B3619043B93
:100760009E1B3605384B760D1E433C4B56809380BE
:10077000FF23D771937143464A469A60012342464C
:100780001A43944661462E4B019A9B689950BFF3D9
:100790005F8FBFF35F8F0022264B1A608AF31088A9
:1007A00003B03CBC90469946A246AB46F0BD01F072
:1007B0006FFB5B46002018568CE70B1D9B468B8811
:1007C00004345B051B155B4436199E1BE02336057C
:1007D000760D1B021E43A6E701F05AFBB9E745461A
:1007E0000B001F489B1B5B415843000D194B2B808E
:1007F000A31C9C46B4446546174B0434043B5B1B66
:100800001B05114D5B0DAC462B43454636196B80DD
:100810000B1F9E1B6346A87148463605760D1E4386
:100820000A4BAE80EF71A8600B60434613439C46B1
:10083000A8E7C046240100D0111A00205C0E002059
:1008400000ED00E001BD000000E0FFFF014880472F
:10085000CD01001000A1FFFF8C0E002001BDFFFFA5
:10086000AAAA0000F0B5DE4657464E464546E0B51A
:100870000C0083B0EFF3108972B6594A1368002B4D
:10088000FCD0BFF35F8F574B9A68030010339F0073
:10089000D559554A9046954232D0A54243D0534E41
:1008A000AA1B2F2A2CD80122824092465146504A38
:1008B00012681140019151464E4A1160BFF35F8F9B
:1008C000EFF305829346002A33D101232A009A438D
:1008D00093689C4208D178E04B005B189B00F318AA
:1008E0009968A1422AD01A00062151560029F3DA4C
:1008F000019B002B19D052463F4B1A603C4B1A60AB
:10090000384B9B68DD51BFF35F8FBFF35F8F0022D1
:10091000334B1A6089F3108803B03CBC904699466B
:10092000A246AB46F0BD1500EAE75246314B1A60CD
:10093000E6E79342C9D001F0ABFAC6E70621595663
:10094000002922DB4A005018800034188046A06835
:100950009860E079D871062020569871A0797F2898
:1009600024D8A488F01A6405241544440019E0240E
:100970000005400D24022043988052181F4B92001E
:10098000B6181A781970B271B2E7594600290FD11A
:10099000FF3191711A49918018490A789A71194A60
:1009A0009B1B5B415A43120D0A70A1E71648E3E70F
:1009B000164A1749D21A083A5002400D014399804D
:1009C000144952080A43DA8092E70621515613006F
:1009D0000029B7DA5A46002AEAD14546DCE7C04684
:1009E000240100D000ED00E0CD0100105C0E0020DD
:1009F00000E100E080E100E080E200E0111A002068
:100A000001BDFFFFAAAA000001BD0000960E002054
:100A100000F0FFFF00F8FFFFF0B5EFF305810124C0
:100A20000443EFF3108672B6214A1368002BFCD002
:100A3000BFF35F8F1F4B05001F4AED1A6D416A43DC
:100A4000120D1E4D8900AF6852B27F58A7421CD0CC
:100A50000621595691421CD012215956914222D05A
:100A60001E215956914220D02A21595603249142E1
:100A700010D0134B19781A708171BFF35F8F002269
:100A80000B4B1A6086F31088F0BDAB680D4C5C50C0
:100A9000EFE700246100091989005B18FF219971B3
:100AA00009499980E5E70124F4E70224F2E7C0460A
:100AB000240100D05C0E0020AAAA000000ED00E096
:100AC000111A0020CD01001001BDFFFF054B064AA1
:100AD0001360064A136053609360D36013615361DF
:100AE000936170478080808000E400E004E400E0CF
:100AF00000B5074B83B00100009300220523054891
:100B0000FFF7F4FC002801DB1F23181A03B000BD17
:100B10000C490010161A0020024B9C4661448900C3
:100B2000016070474000003410B50400FFF73AFD43
:100B300001002000FFF7F0FFFF232371BFF35F8F59
:100B400010BDC04610B50400FFF72CFD01002000C9
:100B5000FFF7E2FFFF23A380BFF35F8F10BDC04606
:100B600010B504000120FFF729FD034BC3189B00BB
:100B70002360BFF35F8F10BD40000034034B9C46E1
:100B8000614489000160BFF35F8F7047400000340B
:100B900083680B4810B58446614462440901120120
:100BA0009A18591854684B6801209C4201D802D009
:100BB0000020C0B210BD12680B689A42F9D8F7E75E
:100BC000FFFFFF0F0A4B1968EFF3108072B60A6837
:100BD000002AFCD0BFF35F8F1B68BFF35F8F00223A
:100BE0001A6080F3108840BF002000217047C04683
:100BF000E0190020F8B5574645464E46DE46E0B5BA
:100C000099460CAB19780DAB1B78050090469A46B7
:100C10000768002912D1BE7B002E45D074003B68C6
:100C2000A419033C1B195A783100BA73002A00D169
:100C3000FA7300229A705A701A7003E00E004C008A
:100C40006418033C2C4B00229C46AB6861449C46D4
:100C50004346090161440B604B464B600A9B8B6025
:100C60000B9BCB603B681B199A705A701A707B7B88
:100C70009B46002B2CD032005946B8687B689847B9
:100C80003A68002817D05B4658465B005B4414194D
:100C9000033BA070D118D35C002B00D063705B467F
:100CA0000E707B73B34514D030003CBC904699461F
:100CB000A246AB46F8BD5B465B005B44033BD318E2
:100CC0009E701119125D002A00D05A705B460B709D
:100CD0007E7342464B46287D00F0A0FB041E06D0E2
:100CE0005346002B03D13100286800F0DDFD0E9B38
:100CF000002BD9D01C70D7E7FFFFFF0FF0B5DE4601
:100D000057464E4645460023E0B58BB00893674BE7
:100D10008200D45800239B46099000F01FFB6268B4
:100D200006000F00EFF3108572B61368002BFCD09D
:100D3000BFF35F8F23689C465B7B9946002B00D1F5
:100D400069E0A2685A4B90464B441B0198444346C5
:100D50001A685B6810001900801BB941002900DC8B
:100D600063E0099800F05AFB002300229846002314
:100D70000692079300239A466368BFF35F8F5A4633
:100D80001A6085F310885346002B08D10028C4D17F
:100D90000BB03CBC90469946A246AB46F0BD089BC2
:100DA000414618024B461843D047626806000F00C0
:100DB000EFF3108572B61368002BFCD0BFF35F8F82
:100DC000002F50DB33003B4302D02369002B61D15D
:100DD0002368DA7B002A07D051008A1819688C46EC
:100DE00049466244033A51709A7B002A01D14A462F
:100DF0009A734A46DA734B46E168013BCA5C01329A
:100E0000CA545B4623616368BFF35F8F5A461A601A
:100E100085F3108881E7002300229846002306927C
:100E20000793002300209A46A6E7002902D1002854
:100E300000D096E70021604600F094FC43461A6813
:100E40005B680692079343469B689A464346DB6875
:100E50009846E3684B44013B1B7808931B0203430D
:100E60002361002088E72369002BB1D0069A079BF5
:100E7000921BBB41002B15DB5946049101210391C4
:100E80004946029141460191514620000091FFF7E9
:100E9000B1FEB6E700F062FA32003B0012184B4197
:100EA000002BE9DA0122034B5242E5E7C419002086
:100EB000FFFFFF0FFFFFFF7F10B5144C6368002B8F
:100EC00004D00A211248FFF727FE10BD2300114A63
:100ED0001021206800F060FB032000F033FA0320AB
:100EE00000F006FB03200C4900F052FAFFF75AFB12
:100EF0000A4B9C4603232375D0231B061B686044C2
:100F00006375074B80006060DC60DAE7A40E0020A8
:100F1000E0190020910B0010FD0C0010400000347F
:100F2000C419002000487047A40E0020F0B54E46BA
:100F30004546DE465746E0B585B0019310AB1B78B9
:100F400080460393002300269946009243465A6840
:100F5000EFF3108B72B61368002BFCD0BFF35F8FDA
:100F600043461D68AC7B002C43D067002B683F19BB
:100F7000033FDB195A78AA73002A00D1EA7342466C
:100F80009E705E701E709268494B94460099019A5B
:100F9000E3181B01634419605A600E9A9A600F9A15
:100FA000DA602B68DB199E705E701E706B7B9A4650
:100FB000002B68D022001900A8686B6898472A683F
:100FC000002853D0534650465B005344D719033B87
:100FD000B870D118D35C002B00D07B7053460C70D6
:100FE0006B73544550D04346DB681B19013B18789E
:100FF00000E0002043465B68BFF35F8F1E608BF309
:101000001088002C51D04B46002B08D10002204301
:1010100005B03CBC90469946A246AB46F0BD039B4A
:10102000002B40D00E9B00200F999847030004002E
:101030000D000B4337D000290ADA009A019B121BDE
:10104000AB4100920193002B0ADB039B99467DE79D
:1010500000F084F924184D4100940195002DF4DA34
:101060000123144C5B4200930194EEE753465B006E
:101070005344033BD3189C70D119D25D002A00D091
:101080005A7053460B706C734346187D009A019B4F
:1010900000F0C4F981460028A5D043462100186815
:1010A00000F002FC9FE70020B2E701204042AFE7DA
:1010B000FFFFFF0FFFFFFF7F407D7047F0B504008B
:1010C0000D0006267642F717C64636196F4100B561
:1010D00084B08F4214D811D000F040F932003B00A8
:1010E000121A8B41002B15DC002B3ED0200029006A
:1010F00000F03EF904B004BC9046F0BD8642EBD946
:101100000026002700F02AF932003B00121A8B411A
:10111000002BE9DD002302930193154B320000936D
:1011200014483B00FFF702FF0028DFDB002398464E
:10113000BC46114A114F7B6A9C4504D8B96A8E425D
:10114000D4D99C45D2D11168EFF3108072B60B68E8
:10115000002BFCD0BFF35F8F1368BFF35F8F414656
:10116000196080F3108820BFE5E7002ABED0D1E7E0
:10117000C50B0010A40E0020E0190020004005401F
:1011800070B5060000F0EAF8FA2204000D00002312
:1011900030000021920000F09BFF001969410029F6
:1011A00002DBFFF78BFF70BD012001494042F8E7E9
:1011B000FFFFFF7FF0B5EFF30583CE46474680B5CE
:1011C00005000C0085B0002B12D02C4B0020596A72
:1011D0008C4203D89B6A0130AB4204D305B00CBCEF
:1011E00090469946F0BD611A481E8141C8B2F5E7A4
:1011F000234E02930193234B0200009330000B0017
:10120000FFF794FE031EE0DD20BF7168EFF3108747
:1012100072B60A68002AFCD0BFF35F8FDAB2944638
:101220003068427B62451DD0FF221A40510089463A
:101230000168914488464946414403398978002928
:1012400013D0F1681B0A88464244013A1278DBB297
:101250009A420FD07368BFF35F8F00221A6087F342
:101260001088B2E7FF221A40EBE732699342F1D1CE
:101270003161EFE7614600F017FBEBE70040054006
:10128000A40E0020C50B0010F0B5EFF30582D64682
:101290004F4646461000C0B51038EFF3108872B6BE
:1012A000214C2368002BFCD0BFF35F8F0123190072
:1012B00081401E4D1F006963AA461D4D29601D4DCA
:1012C0002E78AC463500C5402F402B4215D05346F2
:1012D000194D5F6A83005D59AF4218D3174A8E4398
:1012E0009B5862461670BFF35F8F0022226088F31E
:1012F0001088002B06D0984704E0BFF35F8F27606B
:1013000088F310881CBC90469946A246F0BD0C4B51
:1013100092009C46624413681360BFF35F8F002302
:10132000236088F31088EDE7280100D000400540D5
:101330003C700540151A0020EC190020F81300201D
:10134000D03F054010B50100024A0348FFF7AAF854
:1013500010BDC04628490010101A0020034B596ADE
:101360000A00986A596A8A42FAD1704700400540DB
:10137000064A536A9942FCD807D1044B02E05A6AE4
:10138000914202D19A6A8242F9D3704700400540E7
:1013900070B504000D00EFF3108672B61A4A136898
:1013A000002BFCD0BFF35F8F002D1BD02000FFF778
:1013B00045F9164981420AD02000FFF747F901217B
:1013C0002000FFF70BF90123A340114A1360114BD2
:1013D000A400E550BFF35F8F00220B4B1A6086F329
:1013E000108870BD0B4BA200D5500122A2400A49C3
:1013F00020000B7893430B700449FFF733FA002168
:101400002000FFF7EBF8E5E7280100D08912001073
:1014100038600540F8130020151A0020F0B54F463B
:10142000D6464646C0B507002C4C616A0D00A66A38
:10143000616AA942FAD18B4208D805D001201CBCB0
:1014400090469946A246F0BDB242F7D9EFF3108913
:1014500072B6234801680029FCD0BFF35F8F0125D5
:101460002049BD408C4609781C4C0E002E4388460E
:10147000F1B28A46614650460870391D1A48890003
:1014800065630A51B9000B50216A0020294219D026
:10149000616A0800A66A616A8142FAD18B4219D852
:1014A00001D1B24216D8C24516D00C4B1F201D6286
:1014B0005D6301230740BB400C4A1E38136063463E
:1014C00042461A70BFF35F8F0022054B1A6089F302
:1014D0001088B4E70020F5E70120F3E7004005405D
:1014E000280100D0151A0020EC19002080E200E04D
:1014F00010B5EFF3108472B60A490B68002BFCD0CC
:10150000BFF35F8F01238340074A084813620278C4
:101510009A430270BFF35F8F00230B6084F310883F
:1015200010BDC046280100D000400540151A00201B
:1015300070B505000E001400002924D0002A24D024
:1015400080686B689847296800280ED063001B19D3
:101550007200033B9219CB18033A9E7088188A5C7C
:10156000002A14D1047030000EE073009B19620051
:10157000033B1219CB18033A9C7088188A5C002A26
:1015800000D05A700670200070BD0800FCE75A7049
:1015900004703000F8E7C04630B583600023CCB259
:1015A00043730133047342608373C4730D00006896
:1015B000012C06D9421C0133DBB2137003329C426A
:1015C000F9D1FF2129404B00591800234018033856
:1015D000437030BDF8B5CE46474606000C0080B5D6
:1015E000002907D04D0003686D18033D5A1957783C
:1015F000002F04D120000CBC90469946F8BD79001C
:10160000C9190339884643445978894600215970DD
:10161000517073683A002100806898473368002849
:1016200014D042469A18947059195B5D002B00D073
:1016300053700F70270049463000FFF7CBFF390089
:1016400002003000FFF774FF0400D3E74246414632
:101650005D19AF709A185B5C002B00D06B70147032
:10166000E9E7C046F0B557464546DE464E46E0B58A
:101670000D006B0001685B19DF1E0400C85D83B0BC
:101680000192CA19002850D043001B18033BCB1805
:101690005E78B446002E1AD1019E002E42D0E67B21
:1016A000002E04D073009B19CB18033B5D70A37B05
:1016B000002B00D1A573E57300282FD100235370B0
:1016C00003B03CBC90469946A246AB46F0BD7200C2
:1016D0006244033A89184A78904600224A7091463B
:1016E0005A70010032002000FFF722FF4346824675
:1016F000002B07D05B0021684344033BCB185A788A
:10170000002A16D1424651462000FFF711FF2168FA
:10171000019BCA19002BC2D10028CFD043001B184F
:10172000033BCB1800219970C8E7019B002BB6D171
:10173000C4E75000801803380918487883464846A3
:101740004870587041462000FFF7F2FE5946804627
:101750002000FFF73FFF414602002000FFF7E8FEB0
:101760008046CFE7F0B54E464546DE465746E0B5E3
:10177000467B040075000068AD19033D83B00191FC
:10178000415D4219002952D04B005B18033BC3183E
:101790005F78BC46002F1CD1019D002D44D0E57B15
:1017A000002D04D06B005B19C318033B5E70A37B54
:1017B000002B00D1A673E673002931D1002330003D
:1017C0005370617303B03CBC90469946A246AB4649
:1017D000F0BD7A006244033A8018427893460022B2
:1017E000427091465A7020003A00FFF7A1FE5B4616
:1017F0008046002B07D05B0021685B44033BCB187D
:101800005A78002A17D15A4641462000FFF790FE29
:10181000019B010020684219002BC0D10029CDD0C6
:101820004B005B18033BC31800209870C6E7019B70
:10183000002BB4D1C2E7500080180338091848784B
:10184000824648464870587059462000FFF770FE9F
:1018500053468346002B07D05B0021685344033B6B
:10186000CB185A78002A06D1594652462000FFF775
:101870005FFE8346C7E750008018033809184846C2
:101880004F784870587051462000FFF751FE3900DC
:1018900081462000FFF79EFE494602002000FFF728
:1018A00047FE8246E0E7C04670B5040000292CD010
:1018B000437B8B422ED00568480040180338281817
:1018C0008278002A21D053009B18033BEA5CEE1873
:1018D0008A4202D11BE0002A08D053009B18033B28
:1018E000EB185A788A42F6D142785A7000230122C6
:1018F000837043702000FFF7B5FE617B020020007B
:10190000FFF716FE6073012000E0002070BD4378F1
:101910003370EBE701221900FFF7A4FE607301208A
:10192000F4E7C04630B50C2083B000F0B3F9FEF701
:10193000B1FD00280ED0994B994A1A605A609A60FE
:10194000DA601A615A619A61DA611A62954A5A62DA
:1019500003B030BD944CA06700F0F0F90122934B26
:101960001A60636C012BFCD10322914B1A608E4AE2
:10197000936B012BFCD1013301218E4A8E480093D9
:10198000043300F037F905238C4A009301218C4879
:1019900000F030F98B4B5A68FF2A02D8802252009F
:1019A0005A6080227D4C824B21691201854D1A605C
:1019B000002907D0606900F0EFFA431C5800C018F6
:1019C0000338FDD2E0217F4B02201A6811408022AB
:1019D00052012A43116019684840032101401160F7
:1019E00004219A681142FCD08022802192012A436E
:1019F00009011160802252005A60734B2361734BBE
:101A00005968FF2900D85A6003227048674B0121AA
:101A10001A60020093681942FCD0E02513681D404B
:101A200080235B0103431D6012684A40032111407B
:101A300019600221654A93681942FCD080238021F5
:101A40009B010343090119608021614B49005160EA
:101A50006361604B5A68FF2A00D8596080225E4B50
:101A6000E16912015B4D1A60002907D0606900F03E
:101A700093FA431C5800C0180338FDD2E0225549A0
:101A80000B681A4080235B012B431A60802380225D
:101A90009B012B4312011A608022414B52004A6085
:101AA000E3614E4B5968FF2900D85A6080224C4BA5
:101AB000216A1201494D1A60002907D0606900F0BF
:101AC0006BFA431C5800C0180338FDD2E02243498A
:101AD0000B681A4080235B012B431A60802380220D
:101AE0009B012B4312011A60802380225B004B6014
:101AF0002B4BD20223623B4B5968914200D25A6071
:101B00008022394B616A1201364D1A60002907D0D4
:101B1000606900F041FA431C5800C0180338FDD238
:101B2000E02230490B681A4080235B012B431A6086
:101B3000802380229B012B4312011A608023DB0249
:101B40004B60184B6362294B5A68FF2A02D88022E7
:101B500052005A608022264BA1691201234D1A605F
:101B6000002907D0606900F017FA431C5800C0181C
:101B70000338FDD2E0221D490B681A4080235B0127
:101B80002B431A60802380229B012B4312011A6091
:101B900080235B004B600E4BA361D9E61415002037
:101BA000006CDC021BB70000008000403CB000402D
:101BB00030B00040002F685900800240008C8647FA
:101BC00000C0024030800040001BB7003C80004055
:101BD000405973075480004054B00040608000407A
:101BE00060B000406C8000406CB000404880004015
:101BF00048B00040F8B50400214817001D000E0051
:101C000000F0CAF90100380000F0C6F9069A2B046A
:101C1000120313432268002A21DB1A4AA2185142F8
:101C20004A41802149018C4652420A401649624489
:101C30000A6016490A60164917008D68AF43FBD148
:101C4000C021221D8901114321222660A0600A6063
:101C50002268002AFCDAE36008230B60F8BD3F220B
:101C600021680A40B242D8D1A2681205120D824200
:101C7000D3D1EE21E268C9020A409A42CDD1EDE704
:101C8000001BB7000040FDBF00E0004000F0004036
:101C900000C000408023024A9B000343D362704788
:101CA0000080054010B5140080221B4BD2051A603D
:101CB00000281AD00123194A1843194BDA61194A2E
:101CC00042401A62596298628022134BD2051A6010
:101CD0001549164A1160E022D2041A60002C07D17F
:101CE0008022134B12061A6010BD0D4BD861EBE732
:101CF00080236201121B9200121912015B049A42A6
:101D000000D30C4A0C4B1A60054B5A608022084BDA
:101D1000D2051A60E8E7C04600B00540D3C007B05E
:101D2000008005402D3FF84FFCFF010008200140D6
:101D300000A00540FFFFFF00B4190020AA23064AB7
:101D40001B0113602F230549D360054B19605368AD
:101D5000002BFCDA7047C0460040024000B0FA0099
:101D6000006002402C4B2D4A70B51A602C4A2D4B56
:101D70002D491A6010008B689843FBD12B4C2C4BDB
:101D80009C4209D2013B1D1BAD080135AD002D1948
:101D900008CC9847AC42FBD1FFF7C4FD254A214B44
:101DA0001A60214A9368DB018033FBD14022224B29
:101DB000224C234D9A675A671A67DA66AC4208D2FA
:101DC00023682000002B21D00834FEF7BBFEAC4274
:101DD000F6D31C4C1C4DA168C022280000F0E8F985
:101DE000A560FEF7D1FBFEF771FEFFF765F8174C13
:101DF000174B9C4209D2013B1D1BAD080135AD00BC
:101E00002D1908CC9847A542FBD170BD0834FEF7C8
:101E10008BFEAC42D4D3DCE700E00040BFCDFBFE3C
:101E2000FE7F3C0000F0004000C00040380F002062
:101E3000480F0020FFFFFF0100F00140300F00209D
:101E4000380F002000ED00E000000020480F0020C7
:101E5000500F002000BEFDE710B5FFF7FBFFC046A6
:101E60000FB400B5084883B000F0C8FA049B002BFB
:101E700007D005A91800019100F018F8034800F0F8
:101E8000BDFA0120FFF7E6FF4C4900105C49001045
:101E900010B50148FFF7E4FF6049001010B50028B5
:101EA00000D110BD00F05EFAFBE7C04610B5094A4C
:101EB0000300146884B0002C08D001220091064869
:101EC000524203A9A047012004B010BD00F096FAC9
:101ED0000020F9E7B01900209D1E001001480421E0
:101EE000014B1847D00E00200D1F0010142310B511
:101EF0000100188804331B88984710BD162310B5BD
:101F00000100188802331B88984710BDF0B5C646FB
:101F100000B5002916D0142304000125984618277F
:101F2000890046184346216818883B88984701C4B1
:101F3000431E984140420540A642F3D1280004BC0C
:101F40009046F0BD0125F9E7124A936F9B0815D220
:101F50009066D166002905D0FFE7FFE7FFE7516FE4
:101F6000106F704704B580210906C2175140002840
:101F700000D0C84302F07CFC002104BDF0B5146E13
:101F8000556E576F166FFFF7E3FF14665566576778
:101F90001667F0BD000000D0114A936F9B0813D262
:101FA00010665166002905D0FFE7FFE7FFE7516F94
:101FB000106F704704B5002801D00020C04302F024
:101FC00057FC002104BDC046F0B5146E556E576F26
:101FD000166FFFF7E5FF1466556657671667F0BD85
:101FE000000000D0132370B51D78012D15D010DD31
:101FF0002748FFF783FF274C01008022200000F0D4
:10200000D7F8022D06D02448FFF770FF234B186045
:1020100070BD204C224AA264F5E72E001D4C204AD8
:10202000A3085B421E401D422FD0330022602020B7
:10203000B1006118801B0A604A608A60CA600A6148
:102040004A618A61CA610A624A628A62CA620A6332
:102050004A638A63CA630A644A648A64CA640A6512
:102060004A658A65CA650A664A668A66CA660A67F2
:102070004A674008102803D18A67CA67A264C2E78A
:102080001E339B00E250A264BDE70023CFE7C046A9
:1020900053440000181A00204C330000DC190020C3
:1020A000A520001007B5604601880A0A0230DF2A21
:1020B000FAD1C9B2820804D30288408800041043D0
:1020C00000E00068014A5050039007BD181A002034
:1020D00051434343C9188C46110C83B24B4310B48F
:1020E000040C614392B280B2504362431C041B0C47
:1020F000001910BC59411304120CC018514161441D
:1021000070470000132310B512481C78FFF7F6FE45
:102110000100012C0AD003DD80220F4800F048F8AE
:102120000E48FFF7E3FE0E4B186010BD0A4C542218
:10213000200000F03DF80B4B6365A365E365236663
:102140006366A366E36623676367A367E367236247
:10215000E361E5E753460000181B00204C33000004
:10216000DC1900206921001007B5604601880A0AC1
:102170000230DF2AFAD1C9B2820804D3028840882B
:102180000004104300E00068014A5050039007BD6E
:10219000181B002001480421014B1847E00E0020C5
:1021A0000D1F0010014B1B6818470000E00E0020B7
:1021B000014B5B6818470000E00E0020030010B5DB
:1021C00008001B681100984710BDC046F8B5474687
:1021D000CE4680B5437D07000D001600002B37D09A
:1021E00000240020002A1EDD4B1E98461B4B9946FA
:1021F000002C2BD043461B5D0D3B5A425341DBB2B2
:102200002A5D0A2A13D00134A642F1DC864203DD9E
:10221000311A3B6828189847AD19013D2B780D3BC2
:102220005A4253413B750CBC90469946F8BD002B71
:10223000E9D1A04203DA211A3B682818984748469A
:1022400002213B68013498472000DDE73B7DD7E75A
:102250000368110028009847E5E7C046D049001000
:10226000F0B5DE4657464E464546E0B585B0170008
:102270001C0006000D00FFF771F80023324A121807
:102280004B41002B5BDB314908008A4602F010FB12
:1022900001906B1C03D1300002F094FA0500002C71
:1022A00028D12B4B98462B4B1C68002C15D0002FA7
:1022B00023D1294F02E02469002C0ED02368002B83
:1022C000F9D03B68002B01D0A342F4D120002A00B2
:1022D0003100C0472469002CF0D1019B002B2AD18A
:1022E000681E8541E8B205B03CBC90469946A246BE
:1022F000AB46F0BD194B9846D5E7174B994602AB54
:10230000DF1D0A239B4602E02469002CE5D02368E8
:10231000002BF9D04B461B68002B01D0A342F3D110
:102320002A0031002000C0475B460122390020000E
:102330003B70C047E8E7504602F082FAD0E701223E
:10234000074B52429FE7C04640420F00300F00202B
:10235000CD210010A4150020AC150020BD210010D7
:10236000FFFFFF7FF0B5CE46474680B583B06B4692
:102370000500DE1D3070FEF7F1FF00231A4A121827
:102380004B41002B2CDB19490800884602F090FADB
:10239000174B07001C68002C16D0164B994602E01C
:1023A0002469002C10D02368002BF9D04B461B6801
:1023B000002B01D0A342F3D1200001223100FFF70E
:1023C00005FF2469002CEED1002F05D1280003B0B1
:1023D0000CBC90469946F0BD404602F031FAF5E754
:1023E0000122054B5242CEE740420F00300F002041
:1023F000A4150020AC150020FFFFFF7F70B504007E
:1024000002F0E0F900230100050001222000FFF79F
:1024100027FF084B1C68002C06D06368002B05D0F2
:1024200098472469002CF8D1280070BD2469002C3D
:10243000F3D1F9E7A41500200A4A1368002B05D14F
:102440000CE01A001B691032002B07D09842F8D11B
:10245000002902D103691360016170470029FCD093
:102460001060FAE7A415002010B500F0D9F910BDEE
:102470007047C0460022014B1A707047121A0020A4
:102480004B790020FF2B0BD18B79002B08D1CB7916
:10249000012B05D1082A03D98A78024B09301A701A
:1024A0007047C046121A00200120704770B50129FC
:1024B00009D115495379107909781B02034300208B
:1024C000994202D070BD0120FCE75378012B08D05F
:1024D000022BF7D1002064220021FFF7E3FB01204B
:1024E000F0E79478D278050012021443D20502D5A1
:1024F000620A93401D000548FFF7F8FC7F210300A6
:10250000214028009847C046121A0020554200007A
:102510000123037000487047D44900104A780B78B3
:1025200012021A438B7810B51B041A43CB781B0692
:1025300013439622D200934200D010BD0348FFF708
:10254000D5FC0021030008009847C0465542000012
:10255000024B1860024B19607047C04608150020F6
:102560000C15002010B5024B1878FEF749F810BD85
:10257000131A0020114B70B51A68002A1AD0EFF315
:10258000108172B610680028FCD0BFF35F8F002264
:102590000B48596002701B68BFF35F8F1A6081F3AC
:1025A000108800240025074B1878FEF729F8290029
:1025B000200070BDFA240025A400F4E7BC19002017
:1025C000141A0020131A002070B5040000200E0019
:1025D00001F00EFB002835D0002001F021FB00287F
:1025E00030D0FEF7BBFE0023184A12184B41002BD7
:1025F00024DB174D280002F05BF9002822D00020D0
:1026000001F0F6FA00280BD10120002103244042FA
:1026100000F0D8FC6442280002F012F9200070BDDE
:10262000002001F0FDFA0028EED021003200002049
:1026300001F002FB041EEED1033CECE70122054B46
:102640005242D6E703246442E8E7C04640420F0006
:10265000E4190020FFFFFF7FF8B5DE46574680B53E
:1026600005000C00FEF77AFE0023364A12184B4193
:10267000002B5ADB344908008A4602F019F9002879
:1026800003D10CBC92469B46F8BD002001F0B0FA85
:1026900000284ED00026002C43DD2C4B9B4614E036
:1026A000A919002001F03CFB070001200021404255
:1026B00000F088FC002001F0F7FAFEF74FFE234BF4
:1026C000F61918605960B4422BDD002001F042FB7E
:1026D000A71B0200B84200DD3A00002AE0D1012029
:1026E0000021404200F06EFC002001F0DDFA0020E5
:1026F00001F07EFA002814D0002001F02BFB002806
:10270000E1D1FEF72BFE5B460F001A685B680021E3
:1027100084460F4812184B419F4202D8D3D19445AA
:10272000D1D9504602F08CF8ABE70122094B524256
:10273000A0E700200021054B18605960504602F0C8
:102740007FF89EE740420F00E4190020501000205F
:1027500020A10700FFFFFF7F10B5244C84B00021AB
:10276000200002F08DF800281CD1214B1A68002AA5
:1027700016D0EFF3108172B610680028FCD0BFF3BA
:102780005F8F01241B48596002781B68D2B2047025
:10279000BFF35F8F0020186081F31088002A0AD0F1
:1027A00004B010BD01200021404200F00BFC2000CD
:1027B00002F046F8F4E7FEF7B5FB0400FEF7CEFDA5
:1027C000FA220023920012184B41002B09DB012151
:1027D000029100210191084920000091FEF7A6FB1B
:1027E000DEE70122054B5242F1E7C046E419002022
:1027F000BC190020141A002075250010FFFFFF7F70
:10280000054B10B51868002804D0044B0022196845
:1028100001F052F810BDC046081500200C1500202C
:10282000D02310B51B0684B01C68FEF77BFBFEF7B7
:1028300043FCA04202D0002004B010BD264B1B7800
:1028400001F09AFC2548FEF76FF90120FEF750F9D8
:10285000FF23234C234920701840FDF7F7FE207812
:102860000121FDF7BBFE0520FDF7D2FE002822D195
:10287000FEF758FB0400FEF771FDFA2200239200D8
:1028800012184B41002B22DB012102910021019102
:10289000154920000091FEF749FB082204000021A1
:1028A0001248FFF77FFC002CC5DB11480121FFF720
:1028B000C3FD0120C0E700220E490520FDF7F0FE10
:1028C000FDF770FE01000948FEF758F9EDE7012217
:1028D000094B5242D8E7C046E04B0010E4190020F3
:1028E000131A00205927001075250010BC1900206C
:1028F000F00E002065250010FFFFFF7F00487047A5
:102900008C4A001000487047384A001070B5040027
:1029100016480378002B20D0002C06D1C12414487F
:10292000144BA4004380048070BD052C1CD8124BAE
:102930000F48A400E558811C002304E001330A80FD
:102940000231132B0DD0EA5CDCB2002AF6D1C02391
:10295000013464009B001C43E5E7112100F016F8E8
:10296000DAE7CA24A400DEE70020DDE7FC19002036
:102970007C15002009040000A04A001010B5024890
:1029800000F0E2F810BDC046D419002030B54B1E4F
:10299000012900D1B0E06B4A11780D112C003034C0
:1029A0009F2900D9ABE00470012B00D1C7E00F21B3
:1029B000147821400C003034092900DDA1E0447076
:1029C000022B00D1BBE051780D112C0030349F292F
:1029D00000D999E08470032B00D1B0E00F21547826
:1029E00021400C003034092900DD8FE0C470042B35
:1029F00000D1A4E091780D112C0030349F2900D92A
:102A000087E00471052B00D199E00F2194782140D3
:102A10000C003034092900DD7DE04471062B00D123
:102A20008DE0D1780D112C0030349F2900D975E04C
:102A30008471072B00D182E00F21D47821400C0053
:102A40003034092900DD6BE0C471082B00D176E039
:102A500011790D112C0030349F2964D80472092B90
:102A600000D16CE00F21147921400C003034092989
:102A70005BDC44720A2B62D051790D112C0030348A
:102A80009F2955D884720B2B59D00F21547921409E
:102A90000C00303409294DDCC4720C2B4FD09179D5
:102AA0000D112C0030349F2900D9073404730D2BED
:102AB00045D00F21947921400C003034092901DDE3
:102AC00037310C0044730E2B39D0D1790D112C0005
:102AD00030349F2900D9073484730F2B2FD0D1793C
:102AE0000F220A4011003731092A01DC303211006F
:102AF000C173102B23D010300023037030BD073476
:102B000051E737310C005AE7073463E737310C00DF
:102B10006CE7073475E737310C007EE7073487E749
:102B200037310C0090E7073498E737310C00A0E705
:102B30000734A7E737310C00C4720C2BAFD1C01893
:102B4000DAE7C046D419002030B5002589B004006A
:102B50000922002101A80095FFF724FB092200218A
:102B600005A80495FFF71EFB4B236A4668461370C1
:102B700004A90D2201F05CFE152108222000694401
:102B8000FFF716FB09B030BD10B501210520FDF798
:102B900025FD10BD10B500220021024800F05CF9AF
:102BA00010BDC046D01500208022024B5202DA64CC
:102BB0007047C04600201150F0B5C64600B506006B
:102BC00000F024F90C231C4DFF22AB6705201B49A4
:102BD000FDF766FD40239846194C40220021200055
:102BE000FFF7E0FA4146002301270022212021833C
:102BF000144967706380E276A1600B6022545F30F5
:102C000060844046208705380F4922540F4A63608C
:102C1000E160A26213606362E16201F041FE802321
:102C20009B052F64EB649023094A3000EA50FFF7BC
:102C3000BBFF04BC9046F0BD000011501D050020F4
:102C4000B01500208400105000011050800010507A
:102C500010D001000B785B0602D14B78052B00D019
:102C600070478A78014B1A60FAE7C046000011509D
:102C7000F0B5C64600B5CC7888780A794B797F21C3
:102C8000A40701401B02C50913434F00A20F140003
:102C9000324E7A195201B21890700120684050707B
:102CA00000205B055B0DD0701383D4768046CA008C
:102CB000012D33D02A488446880162448446B444B6
:102CC0006046826040461060002933D0254AC90022
:102CD00090466246414451603F223F339343022C69
:102CE00000D15B0020487A1901685201B218D16006
:102CF0001E4ACB180360514053408022884652013F
:102D0000934228D84346A4061C4380237F197F01A1
:102D10001B06F6191C4373681C6011E014488446B6
:102D2000880162448446B444604682624046106032
:102D3000002909D100236D01761973600D4BF360F2
:102D4000012004BC9046F0BD084AC9009046624686
:102D500041445162C0E7FFF79BF8D3E7B01500206C
:102D60008400105004001050B819002000001050CA
:102D7000800010500001105010B501F091FD10BD01
:102D800010B57F200C0020404000E409110000191C
:102D90001A00034B4001C01800F05EF8012010BD7E
:102DA000B01500207F23180010B508400B420BD04F
:102DB000C90980224000401806494001401812010C
:102DC000002101F08DFD10BD0223034AC9095B1AE1
:102DD0009366EEE7B0150020002011507F23180005
:102DE00010B508400B4200D110BD00234000C909B6
:102DF000411804484901401800220349C37001F0FA
:102E00006FFDF1E7B0150020FFF7FFFF80220D4BAB
:102E1000520410B51A600C4B0C491A6010008B68F4
:102E20009843FBD10A4C9C2200212000FFF7BAF9FD
:102E30008022002152010748FFF7B4F90923636794
:102E400010BDC04600E0004000F0004000C000405F
:102E5000000011500000105070B5837E04000D007A
:102E60001600002B19D100232100E3820133A68232
:102E7000A3762561A01C1B3101F0EAFC002804D0D8
:102E800080219023084A8902D150200001F0E8FCFB
:102E9000002805D00123237770BD01F019FDE2E77A
:102EA000200001F00DFDF7E700201150024B58788B
:102EB000431E9841C0B270479C130020024B187803
:102EC0004007C00F7047C0469C130020034B187882
:102ED000FF38431E9841C0B27047C0462C0F0020F7
:102EE000F8B5CE46474680B52C4E05003378012014
:102EF000FF2B03D00CBC90469946F8BD532200210D
:102F00002748FFF74FF9274C2000FDF70DFE264B11
:102F10001C60264C20001430FDF722FE200001F03A
:102F2000F1FB234B234F1C60234B9846002B04D00E
:102F30003800FFF7EDFA214B1860424600243B7839
:102F4000002A23D01E4A90461C4A9146A34212D81A
:102F50000FD14346984701343B78E4B2A342F5D2FF
:102F600028003570FFF728FE2800FFF70DFE01202E
:102F7000C0E70020BEE74A461268630094461B196A
:102F8000DB006344002BF4D01B68E3E700F0EEFEA7
:102F90003B780020002BADD1E2E7C0462C0F00208B
:102FA0009C13002054130020F0130020100F002069
:102FB000F41300200D1A00201125001074100020B9
:102FC0006D3D0010F0B5DE4657464E464546E0B52D
:102FD0008DB001F0D7F8002800D10FE1C74BC84DE4
:102FE0009946C84B09AC9B462E687269EFF3108175
:102FF00072B61368002BFCD0BFF35F8FB161300055
:10300000210001F0C9F97269B369BFF35F8F002134
:10301000116083F31088002800D1EFE06378082B5B
:10302000E2D84A469B00D3589F466368002BDBD00A
:10303000A0689847D8E77F222179B24E0A40500015
:10304000CB093618F618300001273030C378BB435F
:10305000C370C3780337BB43C370002A00D1F2E0CA
:10306000A94AF37C002A06D0A84A1278934200D2DB
:1030700060E19B1ADBB2002B00D0BFE0A44E627966
:103080002078A368B047AFE75B4601221B78012197
:1030900013435A46137033235846D25C5E468A4324
:1030A000C254C25C04208243F2540133F25C8A436E
:1030B000F254F25C8243F254237800209A4600F0E6
:1030C00007FD602223791A40602A0DD0402A00D1E2
:1030D000BFE0DB06DB0E012B00D136E1022B00D175
:1030E000D4E0002B00D1C3E020780021FFF75AFE86
:1030F00080212078FFF756FE76E7824E3378DB0793
:1031000000D471E7834B002B00D16DE700E000BFD6
:103110006AE77C4E3378DB0700D465E77E4B002BF3
:1031200000D161E730780007C00F00E000BF5BE727
:10313000764B754A9846002627781B78002A00D1DE
:1031400079E0764A92469E425FD319D1744B38009B
:103150009847434601361B78F6B2B342F3D2694E24
:10316000532200213000FFF71DF81022FF21F01C30
:10317000FFF718F830002022FF211330FFF712F874
:1031800000F09CFC674B002B00D12DE700E000BF56
:103190002AE75E4B5C4A9846002627781B78002A6F
:1031A0001FD05E4A92469E423AD321D15C4B3800F2
:1031B0009847434601361B78F6B2B342F3D2514EDC
:1031C000532200213000FEF7EDFF1022FF21F01CFA
:1031D000FEF7E8FF30002022FF211330FEF7E2FF68
:1031E00007E0380000F000FE43461B78002BE6D0D5
:1031F000444E00F063FC2379B370F5E60DB03CBC9F
:1032000090469946A246AB46F0BD524612687300FE
:1032100094469B19DB006344002BB1D05B6896E7B2
:1032200052461268730094469B19DB006344002BDE
:10323000DED05B68BBE7380000F0D6FD43461B7864
:10324000002B9DD18BE762792078A36800F054FCB5
:10325000CAE63548002800D146E700F039FC0121D4
:1032600050460AAA00E000BF002800D0BCE63BE7B9
:10327000202A00D19EE0002A00D035E76379092B8F
:1032800000D931E7294A9B00D3589F467023217A01
:103290000B4200D028E758460F330B405B00CE09A5
:1032A000C018194F8019C07C002F06D0174F3F78E7
:1032B000B84200D2A0E0C01BC0B2002800D096E007
:1032C000002A00D047E11A4F0220627990468243DB
:1032D000012A00D142E14246002A00D004E75B44C3
:1032E0009E193036F37808AA9B07DB0F0232138051
:1032F000504602230AA900F085FB75E6204B00101A
:10330000F41300209C130020112500100D1A00203A
:10331000E13F0010000000000000000074100020D9
:10332000E93D00100000000000000000444B0010C8
:10333000AC4B00105A00D318B14ADB001268D31806
:10334000002B00D15AE71E6999E6237A0F2B00D98A
:10335000CAE6AC4A5B44DB78002A05D0AA4A127858
:1033600093425ED39B1ADBB2002B00D0BCE6A74889
:10337000A74E00F0ADFB01215046F3680AAA98471A
:10338000002800D030E66022160023791E401A4241
:1033900000D0A9E663790A3B012B00D9A4E600F02E
:1033A00097FB63790A2B00D120E150460AA900F06F
:1033B00011FB19E6237A0F2B00D995E6914A5B445D
:1033C000DB78002A06D0904A1278934200D2E6E0D9
:1033D0009B1ADBB2002B00D086E68C488C4E00F0A6
:1033E00077FB01215046F3680AAA98473CE700277B
:1033F000002A00D168E777E647003818804FC00000
:103400003F683F18002A00D15EE7002F00D16BE62D
:10341000F86800F05DFB01215046FB680AAA984756
:1034200022E7774A5E00F3181668DB00F618002ED4
:1034300000D159E6F0689CE7A279029273789A422B
:1034400007D07378002B00D047E1029B002B00D0FF
:10345000EAE05B46029A50460AA95A7000F0BAFAAE
:10346000C2E5737808AA02321370504601230AA9F4
:1034700000F0C8FAB8E5E088030AC0B20F2B00D903
:1034800032E664499A008A5897460AA800F026FB5B
:103490005046A179FFF77EFB022233781343337045
:1034A000A2E5E388012B00D01EE60822337893437F
:1034B0005A46137079E70220317808AB9A1C8B06C4
:1034C0008908DB0F01400B4311E7E388012B00D093
:1034D0000AE6082233781343EAE74F4B002B00D16A
:1034E00002E600E000BF021E00D1FDE5D37891782E
:1034F0001B020B4350460AA900F084FAB4E6474B7E
:10350000002B00D1F0E500E000BF021E00D1EBE58A
:10351000504613780AA900F075FAA5E62189FFF74D
:10352000F5F9021EF4D1DFE5022B00D113E13C4B8B
:10353000002B00D1D8E500E000BF0200002A00D136
:10354000D2E5D3E7FFF7DAF9122302000AA95046C1
:1035500000F058FA88E62D482D4F5AE7E288002AF5
:1035600008D142465B449E193036F378012A21D0B7
:103570009B072ED5002F00D136E5F86800F0A8FA99
:10358000FB680AAA012150469847002000F0A0FAE3
:1035900034235A46D35CDB0700D525E505E7184AF6
:1035A0005E00F3181668DB00F618002E00D19BE5CC
:1035B000F06814E79B07DDD51A4B1878FFF70EFC6F
:1035C0000222F37893434246F370F3789343F37007
:1035D000D0E7144B1878FFF7E5FB0222F37813438A
:1035E0000122F370F3781343F370C3E708AB9A1C1E
:1035F000504601230AA9167000F004FAF4E4C0460C
:1036000074100020112500100D1A0020FD3E00103E
:10361000AC4B00106C4B00100000000000000000DC
:10362000000000002C0F0020581EC0B2FFF76AF9FE
:10363000002800D158E543780693022B00D053E5CB
:103640000121C2793026931152110B400A40120118
:103650005B0113435A4612780700B24313435A469C
:103660001370C37882781B021343C318093704937D
:103670000791049BBB4200D8ACE0079A7B7801928B
:103680000B2B03D1FB7801933B78FF187B78042B3D
:1036900000D029E50026049B584ADB1B9BB203930C
:1036A000574B05931B78B24263D0B846B34256D805
:1036B00000D019E5534B544F41465046039A984762
:1036C000082803D9039A824200D38AE0059B013679
:1036D0001B78F6B2B342E9D206E55046FFF74CFB41
:1036E000B378464A0193464B002698461B78002A39
:1036F0000DD0464FB34225D820D1454B5046984770
:10370000434601361B78F6B2B342F3D206E0504688
:1037100000F06AFB43461B78002B0FD15322002197
:103720005846FEF73FFD5B461022FF21D81CFEF7EE
:1037300039FD2022FF213748FEF734FD5B46019A10
:103740009A7082E618233A68734394466344002BC8
:10375000F4D05B68D2E7FFF7D5F80200EEE62B4B1A
:103760001F6818237343FF18002F00D1BCE4BB6807
:10377000A2E7039B39001A005046984600F04AFB26
:10378000082800D8B0E44246824200D2ACE41E4B86
:103790009846019B012B28D000220AE0BB78D31861
:1037A000DBB25B44D978FF2900D09DE40132DE70A2
:1037B000D2B2019B9A42F1D1804633000200390017
:1037C000144800F063FD059B47441B78B34200D3C7
:1037D0004FE789E4104B002B00D13AE600E000BF30
:1037E00037E63B0047469846D3E74246054B92688A
:1037F0009A42D1D1069B0193CEE7C0461125001015
:103800000D1A0020153E0010AC4B00107410002063
:10381000E93D0010AF13002000000000F8B5574646
:103820004E46DE4645460C00E0B516001F00002A55
:103830003CD0702398461E4B00259B461D4B9A4654
:103840001AE05B461B78200099465346997800F0B1
:10385000E1FC00281CD021004846FFF709FA0028A7
:1038600016D0A378DA09012A19D00A9A0135137003
:103870002378E418B54219DA6378052B08D1E37888
:103880009B079B0FBB4203D14246A3781A42D8D074
:1038900000203CBC90469946A246AB46F8BD0B9A28
:1038A000013513702378E418B542E5DB0120F0E719
:1038B0002C0F00209C130020002210B584B001AB17
:1038C000019208325A700E4A996014685860616912
:1038D000EFF3108272B608680028FCD0BFF35F8F48
:1038E0001900A261200000F01DFE6269A369BFF308
:1038F0005F8F0021116083F3108804B010BDC046B3
:10390000F4130020702270B58B780C001A4201D09D
:10391000002070BD064B20001D78064B997800F002
:1039200079FC0028F4D021002800FFF7A1F9F0E786
:103930002C0F00209C1300200B007F2010B5184096
:10394000DB0940003333C318034A04481168C01828
:1039500000F01CFC10BDC046F01300209C1300209A
:103960000B007F2010B51840DB0940003333C3182B
:10397000034A04481168C01800F030FC10BDC0466E
:10398000F01300209C13002070B57F240C406000D1
:103990000E4CCD09241864193034E5780020ED0769
:1039A00000D570BD0126E578094835430078E570FB
:1039B000FFF7E6F90028F4D10122E3789343E3709E
:1039C000E37803329343E370EBE7C0469C13002097
:1039D0002C0F002070B50A4E0500082230000C00A4
:1039E000FEF7E6FB002161560023C943C90F2800FA
:1039F000F3600022C901B360FFF7C6FF70BDC04687
:103A000040130020F8B5CE4647469046294E80B573
:103A10008146082230000D001F00FEF7C9FB434617
:103A2000B3600023F381EC79AB7924021C43231C9F
:103A3000BC4200D93B1C9FB2B381002C12D0002F96
:103A40001ED04346002B32D03B1C402F1ED89FB2C5
:103A500033787F2B1FD80021174A3B004846FFF7D9
:103A600093FF09E0002169560023C943C90F0022D2
:103A70004846C901FFF788FF0CBC90469946F8BD3F
:103A800033787F2B10D980210022E6E740239FB2B4
:103A900033787F2BDFD9084C3A0041462000FEF7EF
:103AA00087FB80212200D8E700210022D5E70020F3
:103AB000E2E7C046401300205C13002010B514223A
:103AC00000210248FEF76EFB10BDC04640130020E7
:103AD000014B18617047C0464013002010B5054CDB
:103AE000010008222000FEF763FB0023A360E360CF
:103AF00010BDC04640130020F8B53A4C1D00237895
:103B00000600DA09C9098A4213D00020002D00D02E
:103B1000F8BD354B002B03D021003000FFF79AF899
:103B20002369002B43D02200032130009847012055
:103B3000EEE77F2B06D8A068002836D02A002B4954
:103B4000FEF736FBA368E28959195219E38892B24D
:103B5000E281A160934214D03F2D12D9A589A81A01
:103B6000071C80B240282ED82378BFB27F2B2CD8D8
:103B70000021AA4234D01D4A3B003000FFF704FF69
:103B8000C6E72369002B05D02200022130009847A8
:103B900000280ED0002161560023C943C90F00221E
:103BA0003000C901FFF7F0FEB2E70020B0E70120C6
:103BB000AEE700213000FFF7F5F830008021FFF775
:103BC000F1F80120A4E74027CEE7AA4207D0074C2E
:103BD0003A002000FEF7ECFA80212200CCE7802199
:103BE0000022C9E740130020552C00105C13002070
:103BF00010B50400FFF75AF9002801D1002010BDCC
:103C0000FFF75CF90028F9D1B22080004443034853
:103C10000019037901201840F1E7C0467810002010
:103C2000B2239B00584310B5024B1030C01800F06F
:103C30007FFB10BD78100020F0B5B225AD004543E4
:103C40002C00C646174F1034E41900B5200092B27C
:103C500000F0F0FB0600200000F088FB3F2803D8AE
:103C6000300004BC9046F0BD7B190020D9789846FE
:103C7000FFF762FE0028F3D0200000F077FB3F281A
:103C80000AD992239B00EA184346D219D97800201A
:103C90004023FFF779FEE3E743460020D978FFF79A
:103CA0005FFEDDE778100020F8B50400FFF7FEF8AE
:103CB000002801D10020F8BDFFF700F90028F9D154
:103CC000B220800044432500144E2435AD1928004D
:103CD00000F02EFB0028EDD037190020B978FFF74F
:103CE0002BFE0028E6D0A2239B009C466444A41926
:103CF00021002800402200F09DFBB978051E08D065
:103D0000030022000020FFF73FFE0028D2D0280049
:103D1000D1E70020FFF724FECCE7C0467810002052
:103D200070B5B224A4004443094B2434E4180500C0
:103D300092B2200000F03AFC0600200000F0F8FAF1
:103D40003F2801D8300070BD2800FFF7ADFFF9E72C
:103D500078100020B2239B00584310B5024B24304A
:103D6000C01800F003FB10BD78100020B222F0B59F
:103D70001B4C83B0002120009200FEF713FAFF23B2
:103D80006371184B80260025E3800127082321005A
:103D90002000760023733200278165813831009539
:103DA000073B103000F08CFA21002000393132003E
:103DB000FF3101230097243000F082FA8E239B000C
:103DC000E6183000FCF7B0FE90239B002662E61850
:103DD0003000E561FCF7A8FE2663656303B0F0BD23
:103DE0007810002000C2FFFF10B5094C0522002109
:103DF0002000FEF7D7F920002434103000F082FCB8
:103E0000200000F07FFC0121200000F09BFC10BD91
:103E100078100020F0B54B79060083B0022B02D158
:103E20008B79022B03D00025280003B0F0BD304F62
:103E3000BB78002BF7D18B7809253B700C780C19D7
:103E40006378242B0BD1082A02D80FE0AA420DD3A5
:103E50002378E418ED186378ADB2242BF6D0052B47
:103E600021D0042B02D163790A2B2FD0214C2000C2
:103E700000F07CFA3F28D7D92600103E0020F178C8
:103E8000FFF75AFD0028CFD0200000F06FFA3F283E
:103E900017D98E239B00E218F93BF178FF3B0020F5
:103EA000FFF772FDC0E721003000FFF72BFD00286F
:103EB000B9D0A3787B702378ED18E4186378ADB29D
:103EC000CFE7F1780020FFF74BFDADE70A4B2778ED
:103ED000019301330093022202233000E119FFF71E
:103EE0009DFC00289FD00E35ED19ADB2BEE7C0464F
:103EF00078100020881000207A100020F8B5602388
:103F000014001278050013400020202B12D12F4EF0
:103F10006379277932781B023B439A420AD163784E
:103F2000222B27D007D8202B17D0212B02D10129F3
:103F30003ED00120F8BD232BFCD1012940D003291C
:103F4000F7D1234B002BF4D0E178A37809020020AD
:103F5000194300E000BF0120ECE7012928D0032924
:103F6000E7D11C4B002BE4D00020B11DFEF7D6FAA0
:103F70000120DFE7012923D00329DAD101252F0011
:103F80003000A378E478023924021C4327403471BE
:103F90007940243000F0D6FB0F4B002BC9D02A000B
:103FA000640800203900224000E000BF0120C1E782
:103FB000072321002800094AFFF724FD0120B9E763
:103FC00021002800FFF706FD0120B3E7781000204C
:103FD000000000001D250010000000007E100020E1
:103FE000F8B557464E464546DE46E0B55D4F80463D
:103FF000FA780C001E008A4265D19AB292239B0087
:10400000FD1810239946B9442900484600F0CEFA1D
:10401000554B002B19D07B79FF2B16D0002E14D0D6
:10402000AA199246BB4603E0013555450DD07B7970
:104030002A789A42F8D1484600F090F90028F3D146
:104040005B46597900E000BFEEE7484B002B05D0F6
:10405000484600F083F9002800D176E0484600F099
:1040600085F93F2858D84A46103A93789C4207D0A1
:10407000012420003CBC90469946A246AB46F8BDC0
:104080003B4B002B02D0002000E000BFFEF70EFFEC
:1040900000281DD1374C200000F04AF90028E7D154
:1040A000002EE5D0B306E3D1243CA1784046FFF7CB
:1040B00043FC2500041EDBD0002300224046A978E3
:1040C000FFF762FCD5E7BB788B42D9D00024D0E75C
:1040D000FEF7F4FE274C0028DDD1200000F028F97F
:1040E0000028D8D02500243D0020A978FFF724FC23
:1040F0000028D0D099239B00E718390040222000E7
:1041000000F098F9A978031E28D03A000020FFF7A4
:104110003BFC0028ACD1BEE74D46103D0020E978BD
:10412000FFF70AFC002801D1AB789FE7484600F072
:104130001DF93F280CD98E22920040230020E978F7
:104140004A44FFF721FCAB7890E7FEF759FB85E77F
:104150000020E978FFF704FCAB7887E70020FFF741
:10416000FFFB98E7781000200000000001280010F5
:10417000000000009C10002010B50020FEF7B0FEEB
:1041800010BDC04610B5FEF7A1FE10BD037870B596
:10419000DB0704000E00DD0F002B17D103785B074F
:1041A00001D5280070BD01213000494200F070FBAC
:1041B0002378DB07DD0F002B0AD123785B0708D4B7
:1041C0000422237801251343237002E00025E8E749
:1041D0000025300000F034FBE3E7C04670B50D0069
:1041E000012104004942280000F052FB23785B07BC
:1041F000DE0F002B04DB280000F022FB300070BD36
:104200002378DB0704D40422237893432370F2E756
:104210000026F0E7437902791B0213435B055A0D30
:10422000C3789B079B0F022B05D0032B15D00020D2
:10423000012B08D0704702291CD000204023934254
:104240004041C0B2F6E702394B4259410D4B9C4602
:10425000614491424041C0B2ECE702394B425941BE
:10426000F023002049429B001940403191424041D7
:10427000C0B2DFE7044B9C46624450425041C0B29A
:10428000D8E7C046FF03000000FEFFFF8A1870B5A4
:10429000914207D27F264C78052C04D00C7809195E
:1042A0008A42F8D870BD34008D782C40640004191F
:1042B000ED0963550C7809198A42ECD8F2E7C0463B
:1042C000F0B5C64600B5040006A8057880208846EB
:1042D00017001E000002824227D8E068002803D0A1
:1042E0000121494200F0D4FA2069002803D00121BD
:1042F000494200F0CDFA4346236073045B0CED03A2
:104300001D430023E0686381A780E58023810028A6
:1043100001D000F095FA20690124002801D000F0B6
:104320008FFA200004BC9046F0BD0024F9E7C04697
:1043300010B5048941898288A3B288B28C4207D320
:104340001B1A9BB2101C9A4200D9181C80B210BDD7
:104350005100091A5B189BB2F4E7C04603894089F3
:10436000181A43425841C0B27047C04630B504895C
:1043700041898288A3B28DB28C4207D35B1B9BB26A
:1043800000209A4201D9D31A98B230BD5000401B88
:104390001B189BB2F4E7C04670B5040000690D001D
:1043A000002803D00121494200F072FA268962896F
:1043B000A088B1B293B2964233D3CA1A92B2002AFD
:1043C00028D0904208D2814230D30B1A9BB263812D
:1043D000984203D81B1A9BB29842FBD9E288216805
:1043E0005204520C53432800C918FDF7E1FE6189BD
:1043F00001254B1C9BB2A08899420ED90023400096
:104400001B1A9BB220696381002801D000F018FAC2
:10441000280070BD002563899BB240008342F1DB18
:10442000EEE74200D21A8A1892B2C8E709188BB296
:104430006381CDE7F0B54F464646D6460400006995
:1044400089469046C0B5002803D00121494200F0BA
:104450001FFA21896389A7888AB29DB2994249D3FC
:10446000561BB6B2002E4BD0B74205D2BA4255D237
:10447000D21995B23E0065814346B0454CD89EB2F4
:10448000AF4203D8ED1BADB2AF42FBD9E288781B37
:104490005204530C19009846236869439C4680B225
:1044A0006144864232D94346584383B21A00484693
:1044B0009A46FDF77DFE43464846F71BED195D43DE
:1044C00021685044AAB2FDF773FE6189A7888B1951
:1044D0009BB27A00994215D99B1A9BB220696381DD
:1044E000002801D000F0ACF930001CBC9046994681
:1044F000A246F0BD7E00761B9619B6B2002EB3D14F
:1045000063899BB27A009342E8DBE5E7424648467E
:104510007243FDF74DFED8E7331CB0E7D51BADB2B3
:10452000A8E7C046F8B50400C0680E00002803D014
:104530000121494200F0ACF9258920896189A288CE
:10454000ADB283B28FB2884228D3DB1B9BB29A42B2
:1045500009D8E779FF0906D1E068002801D000F00A
:104560006FF93800F8BD2B00954203D39B1A9BB21C
:104570009342FBD2E28821685204520C5343C8187C
:104580003100FDF715FEA2886B1C9BB252009D42C4
:1045900009D99B1A9BB201272381DDE75100C91B72
:1045A0005B189BB2D3E79342F5DBF2E7F0B54546E3
:1045B000DE4657464E46E0B504008846150083B0F7
:1045C000002A6AD0C068002803D00121494200F0C7
:1045D0005FF92789E2796389A688BFB29BB2D209C5
:1045E00043D19F4263D27200D31AFB189BB20022C0
:1045F00091469E4233D9F31A1A1C9BB2AB4200D9A2
:104600002A1C93B299464B46002B28D0DB199BB24B
:104610009B463D00B74203D3AD1BADB2B542FBD2C2
:10462000E288711B5204530C18009A4623686843B1
:104630009C4689B26044494545D352464B46414663
:104640005A43FDF7B5FDA3885B00BB4501D39B45ED
:1046500003DB5A46D31A9BB29B465B462381E06834
:1046600000281CD000F0ECF819E0B54222D29F429D
:104670003ED3FA1A92B2710052198A4208DB9A1993
:1046800092B2571BBFB29346BB4236D97F1ABFB214
:10469000EB199BB29B46A946BBE7002399464846C7
:1046A00003B03CBC90469946A246AB46F0BDFB1A0F
:1046B0009BB29CE7AA1BE5881F006D046D0C554357
:1046C000B146A8449FE7534659438BB21A0041466E
:1046D0000193FDF76DFD49468A1B5146AA184A43CE
:1046E000019B20684344190092B2FDF761FDAAE7DF
:1046F0007100CA1ABA1892B2BEE7A946B94200DDE3
:1047000087E7C3E710B50400C068002803D0012183
:10471000494200F0BDF82069002803D00121494238
:1047200000F0B6F80023E06863812381002801D0FF
:1047300000F086F82069002801D000F081F80120FF
:1047400010BDC04670B50400C0680D00002803D03D
:104750000121494200F09CF82069002803D0012182
:10476000494200F095F87F21E379ED011940E068B6
:104770002943E171002801D000F062F82069002887
:1047800001D000F05DF8012070BDC0460123012179
:10479000084A1360084A1360084A0800936898435F
:1047A000FBD1074A11608021490013680B42FCD0FD
:1047B0007047C04600E0004000F0004000C00040EC
:1047C00000C0044010B5830727D00378002B26D003
:1047D0000300032102E01A78002A1CD001330B42A7
:1047E000F9D119680F4A104C8A188A4322420FD116
:1047F000043319680B4A8A188A43224208D10433C9
:104800001968084A8A188A432242F1D000E001332D
:104810001A78002AFBD1181A10BD0300E1E7002026
:10482000FAE7C046FFFEFEFE80808080F8B5C046F5
:1048300001B40248844601BC604700BFE902002081
:1048400001B40248844601BC604700BF4902002011
:1048500001B40248844601BC604700BFF50A00204D
:1048600001B40248844601BC604700BF1D0B002014
:1048700001B40248844601BC604700BFE50D00203A
:1048800001B40248844601BC604700BFC10000205B
:1048900001B40248844601BC604700BFB901002052
:1048A00001B40248844601BC604700BFAD0300204C
:1048B00001B40248844601BC604700BF09010020E2
:1048C00001B40248844601BC604700BFB90B002018
:1048D00001B40248844601BC604700BF550B00206C
:1048E00001B40248844601BC604700BF610B002050
:1048F0004E6F207370696E6C6F636B7320617265AD
:1049000020617661696C61626C6500004E6F207594
:10491000736572204952517320617265206176611E
:10492000696C61626C6500004861726477617265F0
:1049300020616C61726D20256420616C7265616418
:104940007920636C61696D65640000000A2A2A2A77
:104950002050414E4943202A2A2A0A000A0000001A
:1049600048617264206173736572740052656C658E
:1049700061736500626F6F74325F77323571303802
:1049800030000000312E352E310000007069636F59
:1049900000000000736572766F6D6F746F720000B7
:1049A00041707220203120323032340006005250E3
:1049B000BBFF3CB68C49001006005250E182887F54
:1049C0007449001006005250D3F075426C49001033
:1049D0000D0A0000712400107524001081240010BD
:1049E000AD240010A92400100000000055534220FF
:1049F000737464696E202F207374646F7574000083
:104A00000600525053B4F4A1EC4900105261737087
:104A10006265727279205069000000005069636F0E
:104A200000000000426F61726420434443000000B4
:104A30005265736574000000090254000301008090
:104A40007D080B00020202000009040000010202BE
:104A500000040524002001052401000104240202B1
:104A60000524060001070581030800100904010060
:104A7000020A00000007050202400000070582024A
:104A80004000000904020000FF00010512010002BD
:104A9000EF0201408A2E0A0000010102030100001A
:104AA000000000000C4A00101C4A0010FC190020F5
:104AB000244A0010304A0010556E68616E646C65BF
:104AC000642049525120307825780A0065702025ED
:104AD000642025732077617320616C72656164794D
:104AE00020617661696C61626C65000043616E27CC
:104AF0007420636F6E74696E7565207866657220C8
:104B00006F6E20696E61637469766520657020251B
:104B100064202573000000006F757400696E00004A
:104B2000E82F00109231001030310010E82F0010F3
:104B300012310010FA3000108830001036300010AA
:104B40002A300010B6340010A2340010E8300010F3
:104B5000CA340010E83000108A3400107634001097
:104B6000E83000106234001038340010E8300010D3
:104B700044350010283500101C350010E8300010B6
:104B8000E8300010FE34001028350010E830001026
:104B9000E8300010E8300010E8300010E830001075
:104BA000E8300010E8300010DA3400106D3D0010DD
:104BB000E93D0010153E0010FD3E0010E13F0010E1
:044BC00000000000F1
:104BC400AC020010A002001094020010AC490010C6
:104BD40088020010B8490010C4490010004A0010AF
:104BE400030010B50068EFF3108472B60268002A5F
:104BF400FCD0BFF35F8F04229A56002A0BDB0029F6
:104C04000FD000200A601B68BFF35F8F00221A6078
:104C140084F3108810BDD0221206126801201A7184
:104C2400F1E70020EFE7C046F0B5C6461E0000B528
:104C3400040015000368EFF3108272B619680029A6
:104C4400FCD0BFF35F8F0423E356002B36DB2168CF
:104C5400BFF35F8F0020086082F31088D022002702
:104C64001206D7579F4203D1002004BC9046F0BDE2
:104C7400002398460CE02268BFF35F8F4146116021
:104C840083F310882800310000F06EFE0028EBD179
:104C94002268EFF3108372B611680029FCD0BFF3C9
:104CA4005F8F22797F2AE6D922682771BFF35F8F4D
:104CB4000021116083F310880120D6E7D0231B065E
:104CC4001B6823712368BFF35F8F0021196082F38F
:104CD40010880120C9E7C046F0B5C64600B50D00EE
:104CE400040000F021FEFA2206000F000023280031
:104CF4000021920000F028FE36184F41002F2CDBD3
:104D0400D0231B061B68002598460BE02268BFF3DE
:104D14005F8F156083F310883000390000F024FEA3
:104D2400002818D12268EFF3108372B611680029A5
:104D3400FCD0BFF35F8F22797F2AE7D942462271E4
:104D44002268BFF35F8F0021116083F31088012074
:104D540004BC9046F0BD0020FAE70126014F7642DC
:104D6400CEE7C046FFFFFF7F0268EFF3108172B603
:104D74001368002BFCD0BFF35F8FFF23037103681C
:104D8400BFF35F8F00221A6081F3108840BF704721
:104D9400084810B50378002B0AD180230649074A36
:104DA4005B051C68CC5004339342FAD10123037091
:104DB40010BDC0460F1A0020081400100001001096
:104DC40010B5024B0133984710BDC04608140020AB
:104DD400054B1A6880239B005340C0229200134065
:104DE400024A13607047C0460C8001400C90014099
:104DF400034B1A68C0239B009343024A1360704715
:104E04000C8001400C9001401423F0B5D6464F4667
:104E140046469A46814618880433C0B598460E0023
:104E24001B882749140098475346070018884346AF
:104E340024491B889847534605001888434622494D
:104E44001B8898478046FFF7A3FFB847A847FFF79A
:104E5400BFFF002C1BD0C0212200082702204905D7
:104E64003D008B6A1D4018420BD0002C09D0131B47
:104E74000D2B1FD84B461B78013C0B6601239C4627
:104E8400E1442300002D0CD11343002BE8D1FFF79C
:104E9400AFFFC047FFF794FF1CBC90469946A2465B
:104EA400F0BD002AF1D00B6E013A337013000136C5
:104EB4002343EAE7002DD3D0002AD1D0F3E7C0463C
:104EC40049460000455800004643000000231C4AA0
:104ED40010B59360D3601B4A00219360D3601A4AD3
:104EE4001A489360D3601A4A9360D360194A936056
:104EF400D360194A9360D360184A9360D360184A08
:104F04009360D360174A9360D360174A9360D36069
:104F1400164A9360D360164A9360D360154A93602F
:104F2400D360154A9360D360144A9360D360F0222F
:104F3400920000F001FD124B124A1A6010BDC046E7
:104F4400000010500800105010001050F015002000
:104F5400180010502000105028001050300010503D
:104F640038001050400010504800105050001050AD
:104F7400580010506000105068001050700010501D
:104F8400B819002080011050F0B55746DE464E4651
:104F94004546E0B5264B87B09F6D002F24D0254BA6
:104FA4000024994601239B46234B01269A4604E09C
:104FB40001347600E4B2202C16D03E42F8D04B46A1
:104FC4005A469E6563085B00A2439B185B015344E9
:104FD4001800984600F0B6FB00280CD10134B74302
:104FE400E4B27600002FE6D107B03CBC9046994667
:104FF400A246AB46F0BD42464346D28A03AD9B78F7
:105004000192002108222800009300F095FC072358
:105014006B70009B019A2B71002328000121AA6068
:105024006B7100F0B7FB404600F024FBD6E7C046A6
:105034000000115000301150B01500209823C94AC7
:1050440070B5D55880232C009B02102684B01C40D8
:105054001D4279D0C44BC54C9A6AC54B00261A60D0
:105064003B23E35C022B00D1F5E07B23E35C022BC2
:1050740000D101E1BB23E35C022B00D10EE1FB2351
:10508400E35C022B00D11BE13C23FF33E35C022BE6
:1050940000D127E17C23FF33E35C022B00D136E10E
:1050A400BC23FF33E35C022B00D145E1FC23FF3337
:1050B400E35C022B00D179E1AE4BE35C022B00D11F
:1050C40089E1AD4BE35C022B00D198E1AB4BE35C8F
:1050D400022B00D1A7E1AA4BE35C022B00D1CAE169
:1050E400A84BE35C022B00D1D9E1A74BE35C022B74
:1050F40000D1ACE1A54BE35C022B00D195E0A44BBD
:10510400E35C022B00D1DEE1002E08D1A14B1B7819
:10511400002B04D18021A04A90338902D15001AEE2
:10512400904B0C22002130009C6C00F005FCC02345
:1051340064059B00640D7460300033800121802479
:1051440000F028FB954EA402EB066AD480235B0290
:105154001D4217D0012223211C43844B5A54DA7078
:105164006A460023D380C023DB0093808C4A02ABC1
:1051740003CA03C3012101A800F00CFB8022864B63
:1051840092021A6580235B011D4231D18023DB0129
:105194001D421BD180231B021D4204D1AC4200D00E
:1051A400AFE104B070BD01AE0C22002130001C43FD
:1051B40000F0C2FBA023DB0033800121300000F0AB
:1051C400E9FA8022744B12011A65E7E701AE0C225A
:1051D400002130001C4300F0AFFB8023DB00338050
:1051E4000121300000F0D6FA10226B4B1A65D1E78A
:1051F40000261C435B4B1E60FFF768FE0C22002157
:1052040001A800F099FB80236A465B00938001218A
:1052140001A8167200F0BEFA80225F4B12031A65D1
:10522400B4E7FFF7B1FE340090E75E4BE35C002B7C
:1052340000D164E7EF239B00E25C002A00D054E134
:10524400534BE35C022B00D069E7574BE35C002B24
:1052540000D03DE163E73833E65C002E00D104E77B
:105264000233E25C002A00D1FFE600222000E2546F
:10527400203000F031FAF8E67833E35C002B00D1FB
:10528400F8E67C22A15C1E00002900D1F2E600238E
:105294002000A354603000F01FFAEBE6B833E35C5F
:1052A400002B00D1EBE6BC22A15C1E00002900D13A
:1052B400E5E600232000A354A03000F00DFADEE65A
:1052C400F833E35C002B00D1DEE6FC22A15C1E0077
:1052D400002900D1D8E600232000A354E03000F0D8
:1052E400FBF9D1E63933FF33E35C002B00D1D1E67F
:1052F4009E225200A15C1E00002900D1CAE62000B3
:1053040000232130A354FF3000F0E6F9C2E67933DC
:10531400FF33E35C002B00D1C2E6BE225200A15C45
:105324001E00002900D1BBE6200000236130A354F5
:10533400FF3000F0D1F9B3E6B933FF33E35C002B5F
:1053440000D1B3E6DE225200A15C1E00002900D188
:10535400ACE620000023A130A354FF3000F0BCF9D8
:10536400A4E6C0460000115000400540B0150020DE
:10537400A81500203B0200007B020000BB020000D5
:10538400FB0200003B0300007B030000BB030000A2
:10539400FB0300000E1A0020003011501000020020
:1053A40000001050BA030000FA030000F933FF3381
:1053B400E35C002B00D17FE6FE225200A15C1E00BC
:1053C400002900D178E620000023E130A354FF3007
:1053D40000F082F970E64D4BE35C002B00D170E6DF
:1053E4008F229200A15C1E00002900D169E60023EF
:1053F400A35488239B00E01800F06EF961E6444B47
:10540400E35C002B00D161E69F229200A15C1E00A8
:10541400002900D15AE60023A35498239B00E018E6
:1054240000F05AF952E63B4BE35C002B00D152E604
:10543400AF229200A15C1E00002900D14BE600239C
:10544400A354A8239B00E01800F046F943E6324B2E
:10545400E35C002B00D14DE6DF229200A15C1E002C
:10546400002900D146E60023A354D8239B00E0186A
:1054740000F032F93EE6294BE35C002B00D12FE625
:10548400BF229200A15C1E00002900D128E600235F
:10549400A354B8239B00E01800F01EF920E6204B2B
:1054A400E35C002B00D120E6CF229200A15C1E0019
:1054B400002900D119E60023A354C8239B00E01857
:1054C40000F00AF911E6174BE35C002B00D11BE650
:1054D400FF239B00E25C002A00D120E60022E25474
:1054E4001C3BE01800F0F8F819E60022E2541C3BDB
:1054F400E01800F0F1F80C4BE35C022B00D00EE650
:10550400A3E621000948694000F006FA3A020000C7
:105514007A020000BA0200007A030000FA020000D6
:105524003A030000FA030000FB030000B84A00102D
:10553400F8B5028B838A04000F00161C9A4200D926
:105544001E1C8025B6B29B1BE2789BB2ED00A382A1
:105554003543002A02D09025AD01354301214A404C
:10556400E2706278002A09D0002B02D18023DB018B
:105574001D43002F00D02D042800F8BDE368B801B6
:105584009C4632006044216900F0E6F923699C4698
:10559400802366441B021D432661A38AE4E7C046B8
:1055A400836870B504001D68002900D02D0C637851
:1055B400AD05AD0D002B09D1E38AEB18E382238BF3
:1055C400AB4201D90023A382280070BDE36889019E
:1055D4009C462A002069614400F0BEF9E38AEB1876
:1055E400E38223695B192361E9E7C04610B504002F
:1055F400836800211B68FFF7D3FF63681B685B00A7
:1056040002D5238B834200D010BD01212000FFF777
:10561400C7FFF9E7084A0300126C0020920703D47D
:105624001B78DB09012B00D070470878023843420D
:105634005841C0B2F8E7C04600001150010010B54F
:105644001B310230FFF7E6FF00280CD00649074B58
:105654008C46074A9B6A126863449B1A0020C62240
:105664009A424041C0B210BDE0FCFFFF004005403B
:10567400A815002000238376436103617047C04668
:1056840010B58368002901D01C682140002A11D07C
:105694008024E400114322420CD01A6822420BD128
:1056A4000A4A0A401A60FFE7FFE7FFE7FFE7FFE760
:1056B400FFE78368196010BD7F2281780448CB0915
:1056C4001140044A9B009A5800F026F9FFFBFFFFA3
:1056D400CC4A0010080F0020436870B500218025D3
:1056E4001E680400FFF724FF134B6D011B6C054378
:1056F4009B070FD5A3785B060FD0104B1E40802369
:105704009B05334362680021136020002A00FFF7E1
:10571400B7FF70BDA378DB09EFD0A38A002BECD0D0
:1057240001212000FFF704FFA023054ADB053240D6
:1057340005431343E6E7C04600001150FFFFFFAFE7
:10574400FFFFFFDF70B5857E0400002D13D0FFF747
:105754004DFFA38A002B01D1280070BD2000FFF764
:105764006DFF051E03D0012300252377F4E72000F5
:10577400FFF7B2FFF0E77F2281780448CB0911409C
:10578400034A9B009A5800F0C7F8C046EC4A001040
:10579400080F0020F0B54378050085B0042B00D134
:1057A40075E046D8022B00D183E0032B55D1504E2F
:1057B400504A00243378002A00D192E04E4F03E08F
:1057C4000134E4B29C4214D8A342F9D93968620086
:1057D4008C461219D2006244002AF1D05269002A80
:1057E400EED028786968904701343378E4B29C425B
:1057F400EAD9424B1A78520747D504211A7801A8EE
:105804008A431A7000210C2200F096F86A462B781D
:105814001371052353713A4B1C686269EFF31081CD
:1058240072B61368002BFCD0BFF35F8FA16101A98E
:1058340020E0052B11D1314B1A78D20725D504214C
:105844001A788A431A702E4B1C686269EFF3108130
:1058540072B61368002B09D1FBE7294B1C686269F7
:10586400EFF3108172B61368002BFCD0BFF35F8F87
:10587400A1612900200000F047F86269A369BFF321
:105884005F8F0021116083F3108805B0F0BD1B4BBE
:105894001A78D207F9D504211A780A431A70184BDA
:1058A4001C686269EFF3108172B61368002BDDD1B6
:1058B400FBE70120114A1178814311701178994353
:1058C400002311700421537013788B4313700C4B15
:1058D4001C686269EFF3108172B61368002BC5D19E
:1058E400FBE700220132D2B29A42FBD981E7C046DB
:1058F4000D1A002011250010741000209C130020A4
:10590400F41300207047C04601B40248844601BC29
:10591400604700BF2545001001B40248844601BC1D
:10592400604700BF611E001001B40248844601BCF8
:10593400604700BF5D13001001B40248844601BCF7
:10594400604700BFA521001001B40248844601BC91
:10595400604700BFD120001001B40248844601BC56
:10596400604700BFB121001001B40248844601BC65
:10597400604700BFB51100101000000000000000D7
:105984000000010000000000000000000000020010
:105994000000000000000000000003000000000000
:1059A400000000000000FF000000000001B548688E
:1059B40001318E460047704609380149884701BDC8
:1059C400190A0010BC0E002000000000500F002037
:1059D4003C15002000000000000000004C150020D1
:1059E40000000000000000001000000000000000A3
:1059F400503300004C330000543300005233000095
:105A04004D5300004D430000533400004334000064
:105A14005926001000000000C9250010512500106F
:105A24000000000000010000184B00101C4B001087
:105A3400181C002010000C000000000000000000F2
:105A4400000000000000000000000000FF00000053
:105A5400000000000000000095210010DD1E001071
:105A6400E51F001005210010310300107D290010EE
:04000005100001E9FD
:00000001FF
